{
  "_format": "hh-sol-artifact-1",
  "contractName": "DocsPrescription",
  "sourceName": "contracts/Prescriptions.sol",
  "abi": [
    {
      "inputs": [],
      "stateMutability": "nonpayable",
      "type": "constructor"
    },
    {
      "anonymous": false,
      "inputs": [
        {
          "indexed": true,
          "internalType": "address",
          "name": "owner",
          "type": "address"
        },
        {
          "indexed": true,
          "internalType": "address",
          "name": "approved",
          "type": "address"
        },
        {
          "indexed": true,
          "internalType": "uint256",
          "name": "tokenId",
          "type": "uint256"
        }
      ],
      "name": "Approval",
      "type": "event"
    },
    {
      "anonymous": false,
      "inputs": [
        {
          "indexed": true,
          "internalType": "address",
          "name": "owner",
          "type": "address"
        },
        {
          "indexed": true,
          "internalType": "address",
          "name": "operator",
          "type": "address"
        },
        {
          "indexed": false,
          "internalType": "bool",
          "name": "approved",
          "type": "bool"
        }
      ],
      "name": "ApprovalForAll",
      "type": "event"
    },
    {
      "anonymous": false,
      "inputs": [
        {
          "indexed": true,
          "internalType": "address",
          "name": "previousOwner",
          "type": "address"
        },
        {
          "indexed": true,
          "internalType": "address",
          "name": "newOwner",
          "type": "address"
        }
      ],
      "name": "OwnershipTransferred",
      "type": "event"
    },
    {
      "anonymous": false,
      "inputs": [
        {
          "indexed": true,
          "internalType": "address",
          "name": "from",
          "type": "address"
        },
        {
          "indexed": true,
          "internalType": "address",
          "name": "to",
          "type": "address"
        },
        {
          "indexed": true,
          "internalType": "uint256",
          "name": "tokenId",
          "type": "uint256"
        }
      ],
      "name": "Transfer",
      "type": "event"
    },
    {
      "inputs": [
        {
          "internalType": "address",
          "name": "to",
          "type": "address"
        },
        {
          "internalType": "uint256",
          "name": "tokenId",
          "type": "uint256"
        }
      ],
      "name": "approve",
      "outputs": [],
      "stateMutability": "nonpayable",
      "type": "function"
    },
    {
      "inputs": [
        {
          "internalType": "address",
          "name": "owner",
          "type": "address"
        }
      ],
      "name": "balanceOf",
      "outputs": [
        {
          "internalType": "uint256",
          "name": "",
          "type": "uint256"
        }
      ],
      "stateMutability": "view",
      "type": "function"
    },
    {
      "inputs": [
        {
          "internalType": "uint256",
          "name": "tokenId",
          "type": "uint256"
        }
      ],
      "name": "getApproved",
      "outputs": [
        {
          "internalType": "address",
          "name": "",
          "type": "address"
        }
      ],
      "stateMutability": "view",
      "type": "function"
    },
    {
      "inputs": [
        {
          "internalType": "address",
          "name": "owner",
          "type": "address"
        },
        {
          "internalType": "address",
          "name": "operator",
          "type": "address"
        }
      ],
      "name": "isApprovedForAll",
      "outputs": [
        {
          "internalType": "bool",
          "name": "",
          "type": "bool"
        }
      ],
      "stateMutability": "view",
      "type": "function"
    },
    {
      "inputs": [
        {
          "internalType": "string",
          "name": "uri",
          "type": "string"
        }
      ],
      "name": "isContentOwned",
      "outputs": [
        {
          "internalType": "bool",
          "name": "",
          "type": "bool"
        }
      ],
      "stateMutability": "view",
      "type": "function"
    },
    {
      "inputs": [],
      "name": "name",
      "outputs": [
        {
          "internalType": "string",
          "name": "",
          "type": "string"
        }
      ],
      "stateMutability": "view",
      "type": "function"
    },
    {
      "inputs": [],
      "name": "owner",
      "outputs": [
        {
          "internalType": "address",
          "name": "",
          "type": "address"
        }
      ],
      "stateMutability": "view",
      "type": "function"
    },
    {
      "inputs": [
        {
          "internalType": "uint256",
          "name": "tokenId",
          "type": "uint256"
        }
      ],
      "name": "ownerOf",
      "outputs": [
        {
          "internalType": "address",
          "name": "",
          "type": "address"
        }
      ],
      "stateMutability": "view",
      "type": "function"
    },
    {
      "inputs": [
        {
          "internalType": "address",
          "name": "recipient",
          "type": "address"
        },
        {
          "internalType": "string",
          "name": "metadataURI",
          "type": "string"
        }
      ],
      "name": "payToMint",
      "outputs": [
        {
          "internalType": "uint256",
          "name": "",
          "type": "uint256"
        }
      ],
      "stateMutability": "payable",
      "type": "function"
    },
    {
      "inputs": [],
      "name": "renounceOwnership",
      "outputs": [],
      "stateMutability": "nonpayable",
      "type": "function"
    },
    {
      "inputs": [
        {
          "internalType": "address",
          "name": "to",
          "type": "address"
        },
        {
          "internalType": "string",
          "name": "uri",
          "type": "string"
        }
      ],
      "name": "safeMint",
      "outputs": [],
      "stateMutability": "nonpayable",
      "type": "function"
    },
    {
      "inputs": [
        {
          "internalType": "address",
          "name": "from",
          "type": "address"
        },
        {
          "internalType": "address",
          "name": "to",
          "type": "address"
        },
        {
          "internalType": "uint256",
          "name": "tokenId",
          "type": "uint256"
        }
      ],
      "name": "safeTransferFrom",
      "outputs": [],
      "stateMutability": "nonpayable",
      "type": "function"
    },
    {
      "inputs": [
        {
          "internalType": "address",
          "name": "from",
          "type": "address"
        },
        {
          "internalType": "address",
          "name": "to",
          "type": "address"
        },
        {
          "internalType": "uint256",
          "name": "tokenId",
          "type": "uint256"
        },
        {
          "internalType": "bytes",
          "name": "_data",
          "type": "bytes"
        }
      ],
      "name": "safeTransferFrom",
      "outputs": [],
      "stateMutability": "nonpayable",
      "type": "function"
    },
    {
      "inputs": [
        {
          "internalType": "address",
          "name": "operator",
          "type": "address"
        },
        {
          "internalType": "bool",
          "name": "approved",
          "type": "bool"
        }
      ],
      "name": "setApprovalForAll",
      "outputs": [],
      "stateMutability": "nonpayable",
      "type": "function"
    },
    {
      "inputs": [
        {
          "internalType": "bytes4",
          "name": "interfaceId",
          "type": "bytes4"
        }
      ],
      "name": "supportsInterface",
      "outputs": [
        {
          "internalType": "bool",
          "name": "",
          "type": "bool"
        }
      ],
      "stateMutability": "view",
      "type": "function"
    },
    {
      "inputs": [],
      "name": "symbol",
      "outputs": [
        {
          "internalType": "string",
          "name": "",
          "type": "string"
        }
      ],
      "stateMutability": "view",
      "type": "function"
    },
    {
      "inputs": [
        {
          "internalType": "uint256",
          "name": "tokenId",
          "type": "uint256"
        }
      ],
      "name": "tokenURI",
      "outputs": [
        {
          "internalType": "string",
          "name": "",
          "type": "string"
        }
      ],
      "stateMutability": "view",
      "type": "function"
    },
    {
      "inputs": [
        {
          "internalType": "address",
          "name": "from",
          "type": "address"
        },
        {
          "internalType": "address",
          "name": "to",
          "type": "address"
        },
        {
          "internalType": "uint256",
          "name": "tokenId",
          "type": "uint256"
        }
      ],
      "name": "transferFrom",
      "outputs": [],
      "stateMutability": "nonpayable",
      "type": "function"
    },
    {
      "inputs": [
        {
          "internalType": "address",
          "name": "newOwner",
          "type": "address"
        }
      ],
      "name": "transferOwnership",
      "outputs": [],
      "stateMutability": "nonpayable",
      "type": "function"
    }
  ],
  "bytecode": "0x60806040523480156200001157600080fd5b506040518060400160405280601081526020017f446f6373507265736372697074696f6e000000000000000000000000000000008152506040518060400160405280600381526020017f444f430000000000000000000000000000000000000000000000000000000000815250816000908051906020019062000096929190620001a6565b508060019080519060200190620000af929190620001a6565b505050620000d2620000c6620000d860201b60201c565b620000e060201b60201c565b620002bb565b600033905090565b6000600760009054906101000a900473ffffffffffffffffffffffffffffffffffffffff16905081600760006101000a81548173ffffffffffffffffffffffffffffffffffffffff021916908373ffffffffffffffffffffffffffffffffffffffff1602179055508173ffffffffffffffffffffffffffffffffffffffff168173ffffffffffffffffffffffffffffffffffffffff167f8be0079c531659141344cd1fd0a4f28419497f9722a3daafe3b4186f6b6457e060405160405180910390a35050565b828054620001b49062000256565b90600052602060002090601f016020900481019282620001d8576000855562000224565b82601f10620001f357805160ff191683800117855562000224565b8280016001018555821562000224579182015b828111156200022357825182559160200191906001019062000206565b5b50905062000233919062000237565b5090565b5b808211156200025257600081600090555060010162000238565b5090565b600060028204905060018216806200026f57607f821691505b602082108114156200028657620002856200028c565b5b50919050565b7f4e487b7100000000000000000000000000000000000000000000000000000000600052602260045260246000fd5b61346980620002cb6000396000f3fe6080604052600436106101145760003560e01c8063715018a6116100a0578063b88d4fde11610064578063b88d4fde146103b6578063c87b56dd146103df578063d204c45e1461041c578063e985e9c514610445578063f2fde38b1461048257610114565b8063715018a6146102e35780638da5cb5b146102fa57806395d89b41146103255780639f1cabc614610350578063a22cb4651461038d57610114565b806323b872dd116100e757806323b872dd146101e757806342842e0e14610210578063615fd9e2146102395780636352211e1461026957806370a08231146102a657610114565b806301ffc9a71461011957806306fdde0314610156578063081812fc14610181578063095ea7b3146101be575b600080fd5b34801561012557600080fd5b50610140600480360381019061013b91906122e8565b6104ab565b60405161014d91906127d2565b60405180910390f35b34801561016257600080fd5b5061016b61058d565b60405161017891906127ed565b60405180910390f35b34801561018d57600080fd5b506101a860048036038101906101a3919061237b565b61061f565b6040516101b5919061276b565b60405180910390f35b3480156101ca57600080fd5b506101e560048036038101906101e091906122ac565b6106a4565b005b3480156101f357600080fd5b5061020e60048036038101906102099190612152565b6107bc565b005b34801561021c57600080fd5b5061023760048036038101906102329190612152565b61081c565b005b610253600480360381019061024e9190612258565b61083c565b6040516102609190612a8f565b60405180910390f35b34801561027557600080fd5b50610290600480360381019061028b919061237b565b610968565b60405161029d919061276b565b60405180910390f35b3480156102b257600080fd5b506102cd60048036038101906102c891906120ed565b610a1a565b6040516102da9190612a8f565b60405180910390f35b3480156102ef57600080fd5b506102f8610ad2565b005b34801561030657600080fd5b5061030f610b5a565b60405161031c919061276b565b60405180910390f35b34801561033157600080fd5b5061033a610b84565b60405161034791906127ed565b60405180910390f35b34801561035c57600080fd5b506103776004803603810190610372919061233a565b610c16565b60405161038491906127d2565b60405180910390f35b34801561039957600080fd5b506103b460048036038101906103af919061221c565b610c51565b005b3480156103c257600080fd5b506103dd60048036038101906103d891906121a1565b610c67565b005b3480156103eb57600080fd5b506104066004803603810190610401919061237b565b610cc9565b60405161041391906127ed565b60405180910390f35b34801561042857600080fd5b50610443600480360381019061043e9190612258565b610cdb565b005b34801561045157600080fd5b5061046c60048036038101906104679190612116565b610d88565b60405161047991906127d2565b60405180910390f35b34801561048e57600080fd5b506104a960048036038101906104a491906120ed565b610e1c565b005b60007f80ac58cd000000000000000000000000000000000000000000000000000000007bffffffffffffffffffffffffffffffffffffffffffffffffffffffff1916827bffffffffffffffffffffffffffffffffffffffffffffffffffffffff1916148061057657507f5b5e139f000000000000000000000000000000000000000000000000000000007bffffffffffffffffffffffffffffffffffffffffffffffffffffffff1916827bffffffffffffffffffffffffffffffffffffffffffffffffffffffff1916145b80610586575061058582610f14565b5b9050919050565b60606000805461059c90612ce5565b80601f01602080910402602001604051908101604052809291908181526020018280546105c890612ce5565b80156106155780601f106105ea57610100808354040283529160200191610615565b820191906000526020600020905b8154815290600101906020018083116105f857829003601f168201915b5050505050905090565b600061062a82610f7e565b610669576040517f08c379a0000000000000000000000000000000000000000000000000000000008152600401610660906129ef565b60405180910390fd5b6004600083815260200190815260200160002060009054906101000a900473ffffffffffffffffffffffffffffffffffffffff169050919050565b60006106af82610968565b90508073ffffffffffffffffffffffffffffffffffffffff168373ffffffffffffffffffffffffffffffffffffffff161415610720576040517f08c379a000000000000000000000000000000000000000000000000000000000815260040161071790612a4f565b60405180910390fd5b8073ffffffffffffffffffffffffffffffffffffffff1661073f610fea565b73ffffffffffffffffffffffffffffffffffffffff16148061076e575061076d81610768610fea565b610d88565b5b6107ad576040517f08c379a00000000000000000000000000000000000000000000000000000000081526004016107a49061292f565b60405180910390fd5b6107b78383610ff2565b505050565b6107cd6107c7610fea565b826110ab565b61080c576040517f08c379a000000000000000000000000000000000000000000000000000000000815260040161080390612a6f565b60405180910390fd5b610817838383611189565b505050565b61083783838360405180602001604052806000815250610c67565b505050565b600060016009836040516108509190612730565b908152602001604051809103902060009054906101000a900460ff1660ff1614156108b0576040517f08c379a00000000000000000000000000000000000000000000000000000000081526004016108a7906128ef565b60405180910390fd5b66b1a2bc2ec500003410156108fa576040517f08c379a00000000000000000000000000000000000000000000000000000000081526004016108f19061280f565b60405180910390fd5b600061090660086113f0565b905061091260086113fe565b60016009846040516109249190612730565b908152602001604051809103902060006101000a81548160ff021916908360ff1602179055506109548482611414565b61095e81846115ee565b8091505092915050565b6000806002600084815260200190815260200160002060009054906101000a900473ffffffffffffffffffffffffffffffffffffffff169050600073ffffffffffffffffffffffffffffffffffffffff168173ffffffffffffffffffffffffffffffffffffffff161415610a11576040517f08c379a0000000000000000000000000000000000000000000000000000000008152600401610a089061296f565b60405180910390fd5b80915050919050565b60008073ffffffffffffffffffffffffffffffffffffffff168273ffffffffffffffffffffffffffffffffffffffff161415610a8b576040517f08c379a0000000000000000000000000000000000000000000000000000000008152600401610a829061294f565b60405180910390fd5b600360008373ffffffffffffffffffffffffffffffffffffffff1673ffffffffffffffffffffffffffffffffffffffff168152602001908152602001600020549050919050565b610ada610fea565b73ffffffffffffffffffffffffffffffffffffffff16610af8610b5a565b73ffffffffffffffffffffffffffffffffffffffff1614610b4e576040517f08c379a0000000000000000000000000000000000000000000000000000000008152600401610b4590612a0f565b60405180910390fd5b610b586000611662565b565b6000600760009054906101000a900473ffffffffffffffffffffffffffffffffffffffff16905090565b606060018054610b9390612ce5565b80601f0160208091040260200160405190810160405280929190818152602001828054610bbf90612ce5565b8015610c0c5780601f10610be157610100808354040283529160200191610c0c565b820191906000526020600020905b815481529060010190602001808311610bef57829003601f168201915b5050505050905090565b60006001600983604051610c2a9190612730565b908152602001604051809103902060009054906101000a900460ff1660ff16149050919050565b610c63610c5c610fea565b8383611728565b5050565b610c78610c72610fea565b836110ab565b610cb7576040517f08c379a0000000000000000000000000000000000000000000000000000000008152600401610cae90612a6f565b60405180910390fd5b610cc384848484611895565b50505050565b6060610cd4826118f1565b9050919050565b610ce3610fea565b73ffffffffffffffffffffffffffffffffffffffff16610d01610b5a565b73ffffffffffffffffffffffffffffffffffffffff1614610d57576040517f08c379a0000000000000000000000000000000000000000000000000000000008152600401610d4e90612a0f565b60405180910390fd5b6000610d6360086113f0565b9050610d6f60086113fe565b610d798382611a43565b610d8381836115ee565b505050565b6000600560008473ffffffffffffffffffffffffffffffffffffffff1673ffffffffffffffffffffffffffffffffffffffff16815260200190815260200160002060008373ffffffffffffffffffffffffffffffffffffffff1673ffffffffffffffffffffffffffffffffffffffff16815260200190815260200160002060009054906101000a900460ff16905092915050565b610e24610fea565b73ffffffffffffffffffffffffffffffffffffffff16610e42610b5a565b73ffffffffffffffffffffffffffffffffffffffff1614610e98576040517f08c379a0000000000000000000000000000000000000000000000000000000008152600401610e8f90612a0f565b60405180910390fd5b600073ffffffffffffffffffffffffffffffffffffffff168173ffffffffffffffffffffffffffffffffffffffff161415610f08576040517f08c379a0000000000000000000000000000000000000000000000000000000008152600401610eff9061284f565b60405180910390fd5b610f1181611662565b50565b60007f01ffc9a7000000000000000000000000000000000000000000000000000000007bffffffffffffffffffffffffffffffffffffffffffffffffffffffff1916827bffffffffffffffffffffffffffffffffffffffffffffffffffffffff1916149050919050565b60008073ffffffffffffffffffffffffffffffffffffffff166002600084815260200190815260200160002060009054906101000a900473ffffffffffffffffffffffffffffffffffffffff1673ffffffffffffffffffffffffffffffffffffffff1614159050919050565b600033905090565b816004600083815260200190815260200160002060006101000a81548173ffffffffffffffffffffffffffffffffffffffff021916908373ffffffffffffffffffffffffffffffffffffffff160217905550808273ffffffffffffffffffffffffffffffffffffffff1661106583610968565b73ffffffffffffffffffffffffffffffffffffffff167f8c5be1e5ebec7d5bd14f71427d1e84f3dd0314c0f7b2291e5b200ac8c7c3b92560405160405180910390a45050565b60006110b682610f7e565b6110f5576040517f08c379a00000000000000000000000000000000000000000000000000000000081526004016110ec9061290f565b60405180910390fd5b600061110083610968565b90508073ffffffffffffffffffffffffffffffffffffffff168473ffffffffffffffffffffffffffffffffffffffff16148061116f57508373ffffffffffffffffffffffffffffffffffffffff166111578461061f565b73ffffffffffffffffffffffffffffffffffffffff16145b80611180575061117f8185610d88565b5b91505092915050565b8273ffffffffffffffffffffffffffffffffffffffff166111a982610968565b73ffffffffffffffffffffffffffffffffffffffff16146111ff576040517f08c379a00000000000000000000000000000000000000000000000000000000081526004016111f69061286f565b60405180910390fd5b600073ffffffffffffffffffffffffffffffffffffffff168273ffffffffffffffffffffffffffffffffffffffff16141561126f576040517f08c379a0000000000000000000000000000000000000000000000000000000008152600401611266906128af565b60405180910390fd5b61127a838383611a61565b611285600082610ff2565b6001600360008573ffffffffffffffffffffffffffffffffffffffff1673ffffffffffffffffffffffffffffffffffffffff16815260200190815260200160002060008282546112d59190612bfb565b925050819055506001600360008473ffffffffffffffffffffffffffffffffffffffff1673ffffffffffffffffffffffffffffffffffffffff168152602001908152602001600020600082825461132c9190612b74565b92505081905550816002600083815260200190815260200160002060006101000a81548173ffffffffffffffffffffffffffffffffffffffff021916908373ffffffffffffffffffffffffffffffffffffffff160217905550808273ffffffffffffffffffffffffffffffffffffffff168473ffffffffffffffffffffffffffffffffffffffff167fddf252ad1be2c89b69c2b068fc378daa952ba7f163c4a11628f55a4df523b3ef60405160405180910390a46113eb838383611a66565b505050565b600081600001549050919050565b6001816000016000828254019250508190555050565b600073ffffffffffffffffffffffffffffffffffffffff168273ffffffffffffffffffffffffffffffffffffffff161415611484576040517f08c379a000000000000000000000000000000000000000000000000000000000815260040161147b906129af565b60405180910390fd5b61148d81610f7e565b156114cd576040517f08c379a00000000000000000000000000000000000000000000000000000000081526004016114c49061288f565b60405180910390fd5b6114d960008383611a61565b6001600360008473ffffffffffffffffffffffffffffffffffffffff1673ffffffffffffffffffffffffffffffffffffffff16815260200190815260200160002060008282546115299190612b74565b92505081905550816002600083815260200190815260200160002060006101000a81548173ffffffffffffffffffffffffffffffffffffffff021916908373ffffffffffffffffffffffffffffffffffffffff160217905550808273ffffffffffffffffffffffffffffffffffffffff16600073ffffffffffffffffffffffffffffffffffffffff167fddf252ad1be2c89b69c2b068fc378daa952ba7f163c4a11628f55a4df523b3ef60405160405180910390a46115ea60008383611a66565b5050565b6115f782610f7e565b611636576040517f08c379a000000000000000000000000000000000000000000000000000000000815260040161162d9061298f565b60405180910390fd5b8060066000848152602001908152602001600020908051906020019061165d929190611f11565b505050565b6000600760009054906101000a900473ffffffffffffffffffffffffffffffffffffffff16905081600760006101000a81548173ffffffffffffffffffffffffffffffffffffffff021916908373ffffffffffffffffffffffffffffffffffffffff1602179055508173ffffffffffffffffffffffffffffffffffffffff168173ffffffffffffffffffffffffffffffffffffffff167f8be0079c531659141344cd1fd0a4f28419497f9722a3daafe3b4186f6b6457e060405160405180910390a35050565b8173ffffffffffffffffffffffffffffffffffffffff168373ffffffffffffffffffffffffffffffffffffffff161415611797576040517f08c379a000000000000000000000000000000000000000000000000000000000815260040161178e906128cf565b60405180910390fd5b80600560008573ffffffffffffffffffffffffffffffffffffffff1673ffffffffffffffffffffffffffffffffffffffff16815260200190815260200160002060008473ffffffffffffffffffffffffffffffffffffffff1673ffffffffffffffffffffffffffffffffffffffff16815260200190815260200160002060006101000a81548160ff0219169083151502179055508173ffffffffffffffffffffffffffffffffffffffff168373ffffffffffffffffffffffffffffffffffffffff167f17307eab39ab6107e8899845ad3d59bd9653f200f220920489ca2b5937696c318360405161188891906127d2565b60405180910390a3505050565b6118a0848484611189565b6118ac84848484611a6b565b6118eb576040517f08c379a00000000000000000000000000000000000000000000000000000000081526004016118e29061282f565b60405180910390fd5b50505050565b60606118fc82610f7e565b61193b576040517f08c379a0000000000000000000000000000000000000000000000000000000008152600401611932906129cf565b60405180910390fd5b600060066000848152602001908152602001600020805461195b90612ce5565b80601f016020809104026020016040519081016040528092919081815260200182805461198790612ce5565b80156119d45780601f106119a9576101008083540402835291602001916119d4565b820191906000526020600020905b8154815290600101906020018083116119b757829003601f168201915b5050505050905060006119e5611c02565b90506000815114156119fb578192505050611a3e565b600082511115611a30578082604051602001611a18929190612747565b60405160208183030381529060405292505050611a3e565b611a3984611c3f565b925050505b919050565b611a5d828260405180602001604052806000815250611ce6565b5050565b505050565b505050565b6000611a8c8473ffffffffffffffffffffffffffffffffffffffff16611d41565b15611bf5578373ffffffffffffffffffffffffffffffffffffffff1663150b7a02611ab5610fea565b8786866040518563ffffffff1660e01b8152600401611ad79493929190612786565b602060405180830381600087803b158015611af157600080fd5b505af1925050508015611b2257506040513d601f19601f82011682018060405250810190611b1f9190612311565b60015b611ba5573d8060008114611b52576040519150601f19603f3d011682016040523d82523d6000602084013e611b57565b606091505b50600081511415611b9d576040517f08c379a0000000000000000000000000000000000000000000000000000000008152600401611b949061282f565b60405180910390fd5b805181602001fd5b63150b7a0260e01b7bffffffffffffffffffffffffffffffffffffffffffffffffffffffff1916817bffffffffffffffffffffffffffffffffffffffffffffffffffffffff191614915050611bfa565b600190505b949350505050565b60606040518060400160405280600781526020017f697066733a2f2f00000000000000000000000000000000000000000000000000815250905090565b6060611c4a82610f7e565b611c89576040517f08c379a0000000000000000000000000000000000000000000000000000000008152600401611c8090612a2f565b60405180910390fd5b6000611c93611c02565b90506000815111611cb35760405180602001604052806000815250611cde565b80611cbd84611d64565b604051602001611cce929190612747565b6040516020818303038152906040525b915050919050565b611cf08383611414565b611cfd6000848484611a6b565b611d3c576040517f08c379a0000000000000000000000000000000000000000000000000000000008152600401611d339061282f565b60405180910390fd5b505050565b6000808273ffffffffffffffffffffffffffffffffffffffff163b119050919050565b60606000821415611dac576040518060400160405280600181526020017f30000000000000000000000000000000000000000000000000000000000000008152509050611f0c565b600082905060005b60008214611dde578080611dc790612d48565b915050600a82611dd79190612bca565b9150611db4565b60008167ffffffffffffffff811115611e20577f4e487b7100000000000000000000000000000000000000000000000000000000600052604160045260246000fd5b6040519080825280601f01601f191660200182016040528015611e525781602001600182028036833780820191505090505b5090505b60008514611f0557600182611e6b9190612bfb565b9150600a85611e7a9190612d91565b6030611e869190612b74565b60f81b818381518110611ec2577f4e487b7100000000000000000000000000000000000000000000000000000000600052603260045260246000fd5b60200101907effffffffffffffffffffffffffffffffffffffffffffffffffffffffffffff1916908160001a905350600a85611efe9190612bca565b9450611e56565b8093505050505b919050565b828054611f1d90612ce5565b90600052602060002090601f016020900481019282611f3f5760008555611f86565b82601f10611f5857805160ff1916838001178555611f86565b82800160010185558215611f86579182015b82811115611f85578251825591602001919060010190611f6a565b5b509050611f939190611f97565b5090565b5b80821115611fb0576000816000905550600101611f98565b5090565b6000611fc7611fc284612acf565b612aaa565b905082815260208101848484011115611fdf57600080fd5b611fea848285612ca3565b509392505050565b600061200561200084612b00565b612aaa565b90508281526020810184848401111561201d57600080fd5b612028848285612ca3565b509392505050565b60008135905061203f816133d7565b92915050565b600081359050612054816133ee565b92915050565b60008135905061206981613405565b92915050565b60008151905061207e81613405565b92915050565b600082601f83011261209557600080fd5b81356120a5848260208601611fb4565b91505092915050565b600082601f8301126120bf57600080fd5b81356120cf848260208601611ff2565b91505092915050565b6000813590506120e78161341c565b92915050565b6000602082840312156120ff57600080fd5b600061210d84828501612030565b91505092915050565b6000806040838503121561212957600080fd5b600061213785828601612030565b925050602061214885828601612030565b9150509250929050565b60008060006060848603121561216757600080fd5b600061217586828701612030565b935050602061218686828701612030565b9250506040612197868287016120d8565b9150509250925092565b600080600080608085870312156121b757600080fd5b60006121c587828801612030565b94505060206121d687828801612030565b93505060406121e7878288016120d8565b925050606085013567ffffffffffffffff81111561220457600080fd5b61221087828801612084565b91505092959194509250565b6000806040838503121561222f57600080fd5b600061223d85828601612030565b925050602061224e85828601612045565b9150509250929050565b6000806040838503121561226b57600080fd5b600061227985828601612030565b925050602083013567ffffffffffffffff81111561229657600080fd5b6122a2858286016120ae565b9150509250929050565b600080604083850312156122bf57600080fd5b60006122cd85828601612030565b92505060206122de858286016120d8565b9150509250929050565b6000602082840312156122fa57600080fd5b60006123088482850161205a565b91505092915050565b60006020828403121561232357600080fd5b60006123318482850161206f565b91505092915050565b60006020828403121561234c57600080fd5b600082013567ffffffffffffffff81111561236657600080fd5b612372848285016120ae565b91505092915050565b60006020828403121561238d57600080fd5b600061239b848285016120d8565b91505092915050565b6123ad81612c2f565b82525050565b6123bc81612c41565b82525050565b60006123cd82612b31565b6123d78185612b47565b93506123e7818560208601612cb2565b6123f081612e7e565b840191505092915050565b600061240682612b3c565b6124108185612b58565b9350612420818560208601612cb2565b61242981612e7e565b840191505092915050565b600061243f82612b3c565b6124498185612b69565b9350612459818560208601612cb2565b80840191505092915050565b6000612472601183612b58565b915061247d82612e8f565b602082019050919050565b6000612495603283612b58565b91506124a082612eb8565b604082019050919050565b60006124b8602683612b58565b91506124c382612f07565b604082019050919050565b60006124db602583612b58565b91506124e682612f56565b604082019050919050565b60006124fe601c83612b58565b915061250982612fa5565b602082019050919050565b6000612521602483612b58565b915061252c82612fce565b604082019050919050565b6000612544601983612b58565b915061254f8261301d565b602082019050919050565b6000612567601c83612b58565b915061257282613046565b602082019050919050565b600061258a602c83612b58565b91506125958261306f565b604082019050919050565b60006125ad603883612b58565b91506125b8826130be565b604082019050919050565b60006125d0602a83612b58565b91506125db8261310d565b604082019050919050565b60006125f3602983612b58565b91506125fe8261315c565b604082019050919050565b6000612616602e83612b58565b9150612621826131ab565b604082019050919050565b6000612639602083612b58565b9150612644826131fa565b602082019050919050565b600061265c603183612b58565b915061266782613223565b604082019050919050565b600061267f602c83612b58565b915061268a82613272565b604082019050919050565b60006126a2602083612b58565b91506126ad826132c1565b602082019050919050565b60006126c5602f83612b58565b91506126d0826132ea565b604082019050919050565b60006126e8602183612b58565b91506126f382613339565b604082019050919050565b600061270b603183612b58565b915061271682613388565b604082019050919050565b61272a81612c99565b82525050565b600061273c8284612434565b915081905092915050565b60006127538285612434565b915061275f8284612434565b91508190509392505050565b600060208201905061278060008301846123a4565b92915050565b600060808201905061279b60008301876123a4565b6127a860208301866123a4565b6127b56040830185612721565b81810360608301526127c781846123c2565b905095945050505050565b60006020820190506127e760008301846123b3565b92915050565b6000602082019050818103600083015261280781846123fb565b905092915050565b6000602082019050818103600083015261282881612465565b9050919050565b6000602082019050818103600083015261284881612488565b9050919050565b60006020820190508181036000830152612868816124ab565b9050919050565b60006020820190508181036000830152612888816124ce565b9050919050565b600060208201905081810360008301526128a8816124f1565b9050919050565b600060208201905081810360008301526128c881612514565b9050919050565b600060208201905081810360008301526128e881612537565b9050919050565b600060208201905081810360008301526129088161255a565b9050919050565b600060208201905081810360008301526129288161257d565b9050919050565b60006020820190508181036000830152612948816125a0565b9050919050565b60006020820190508181036000830152612968816125c3565b9050919050565b60006020820190508181036000830152612988816125e6565b9050919050565b600060208201905081810360008301526129a881612609565b9050919050565b600060208201905081810360008301526129c88161262c565b9050919050565b600060208201905081810360008301526129e88161264f565b9050919050565b60006020820190508181036000830152612a0881612672565b9050919050565b60006020820190508181036000830152612a2881612695565b9050919050565b60006020820190508181036000830152612a48816126b8565b9050919050565b60006020820190508181036000830152612a68816126db565b9050919050565b60006020820190508181036000830152612a88816126fe565b9050919050565b6000602082019050612aa46000830184612721565b92915050565b6000612ab4612ac5565b9050612ac08282612d17565b919050565b6000604051905090565b600067ffffffffffffffff821115612aea57612ae9612e4f565b5b612af382612e7e565b9050602081019050919050565b600067ffffffffffffffff821115612b1b57612b1a612e4f565b5b612b2482612e7e565b9050602081019050919050565b600081519050919050565b600081519050919050565b600082825260208201905092915050565b600082825260208201905092915050565b600081905092915050565b6000612b7f82612c99565b9150612b8a83612c99565b9250827fffffffffffffffffffffffffffffffffffffffffffffffffffffffffffffffff03821115612bbf57612bbe612dc2565b5b828201905092915050565b6000612bd582612c99565b9150612be083612c99565b925082612bf057612bef612df1565b5b828204905092915050565b6000612c0682612c99565b9150612c1183612c99565b925082821015612c2457612c23612dc2565b5b828203905092915050565b6000612c3a82612c79565b9050919050565b60008115159050919050565b60007fffffffff0000000000000000000000000000000000000000000000000000000082169050919050565b600073ffffffffffffffffffffffffffffffffffffffff82169050919050565b6000819050919050565b82818337600083830152505050565b60005b83811015612cd0578082015181840152602081019050612cb5565b83811115612cdf576000848401525b50505050565b60006002820490506001821680612cfd57607f821691505b60208210811415612d1157612d10612e20565b5b50919050565b612d2082612e7e565b810181811067ffffffffffffffff82111715612d3f57612d3e612e4f565b5b80604052505050565b6000612d5382612c99565b91507fffffffffffffffffffffffffffffffffffffffffffffffffffffffffffffffff821415612d8657612d85612dc2565b5b600182019050919050565b6000612d9c82612c99565b9150612da783612c99565b925082612db757612db6612df1565b5b828206905092915050565b7f4e487b7100000000000000000000000000000000000000000000000000000000600052601160045260246000fd5b7f4e487b7100000000000000000000000000000000000000000000000000000000600052601260045260246000fd5b7f4e487b7100000000000000000000000000000000000000000000000000000000600052602260045260246000fd5b7f4e487b7100000000000000000000000000000000000000000000000000000000600052604160045260246000fd5b6000601f19601f8301169050919050565b7f55736572206e6565647320746f20706179000000000000000000000000000000600082015250565b7f4552433732313a207472616e7366657220746f206e6f6e20455243373231526560008201527f63656976657220696d706c656d656e7465720000000000000000000000000000602082015250565b7f4f776e61626c653a206e6577206f776e657220697320746865207a65726f206160008201527f6464726573730000000000000000000000000000000000000000000000000000602082015250565b7f4552433732313a207472616e736665722066726f6d20696e636f72726563742060008201527f6f776e6572000000000000000000000000000000000000000000000000000000602082015250565b7f4552433732313a20746f6b656e20616c7265616479206d696e74656400000000600082015250565b7f4552433732313a207472616e7366657220746f20746865207a65726f2061646460008201527f7265737300000000000000000000000000000000000000000000000000000000602082015250565b7f4552433732313a20617070726f766520746f2063616c6c657200000000000000600082015250565b7f507265736372697074696f6e20616c7265616479206d696e7465642100000000600082015250565b7f4552433732313a206f70657261746f7220717565727920666f72206e6f6e657860008201527f697374656e7420746f6b656e0000000000000000000000000000000000000000602082015250565b7f4552433732313a20617070726f76652063616c6c6572206973206e6f74206f7760008201527f6e6572206e6f7220617070726f76656420666f7220616c6c0000000000000000602082015250565b7f4552433732313a2062616c616e636520717565727920666f7220746865207a6560008201527f726f206164647265737300000000000000000000000000000000000000000000602082015250565b7f4552433732313a206f776e657220717565727920666f72206e6f6e657869737460008201527f656e7420746f6b656e0000000000000000000000000000000000000000000000602082015250565b7f45524337323155524953746f726167653a2055524920736574206f66206e6f6e60008201527f6578697374656e7420746f6b656e000000000000000000000000000000000000602082015250565b7f4552433732313a206d696e7420746f20746865207a65726f2061646472657373600082015250565b7f45524337323155524953746f726167653a2055524920717565727920666f722060008201527f6e6f6e6578697374656e7420746f6b656e000000000000000000000000000000602082015250565b7f4552433732313a20617070726f76656420717565727920666f72206e6f6e657860008201527f697374656e7420746f6b656e0000000000000000000000000000000000000000602082015250565b7f4f776e61626c653a2063616c6c6572206973206e6f7420746865206f776e6572600082015250565b7f4552433732314d657461646174613a2055524920717565727920666f72206e6f60008201527f6e6578697374656e7420746f6b656e0000000000000000000000000000000000602082015250565b7f4552433732313a20617070726f76616c20746f2063757272656e74206f776e6560008201527f7200000000000000000000000000000000000000000000000000000000000000602082015250565b7f4552433732313a207472616e736665722063616c6c6572206973206e6f74206f60008201527f776e6572206e6f7220617070726f766564000000000000000000000000000000602082015250565b6133e081612c2f565b81146133eb57600080fd5b50565b6133f781612c41565b811461340257600080fd5b50565b61340e81612c4d565b811461341957600080fd5b50565b61342581612c99565b811461343057600080fd5b5056fea2646970667358221220d9944b0dd431736ace8516bae65899cdf6344f292b230664b817e2392c5407f964736f6c63430008040033",
  "linkReferences": {},
  "deployedLinkReferences": {}
}