{
  "contractName": "DocsPrescription",
  "abi": [
    {
      "inputs": [],
      "stateMutability": "nonpayable",
      "type": "constructor"
    },
    {
      "anonymous": false,
      "inputs": [
        {
          "indexed": true,
          "internalType": "address",
          "name": "owner",
          "type": "address"
        },
        {
          "indexed": true,
          "internalType": "address",
          "name": "approved",
          "type": "address"
        },
        {
          "indexed": true,
          "internalType": "uint256",
          "name": "tokenId",
          "type": "uint256"
        }
      ],
      "name": "Approval",
      "type": "event"
    },
    {
      "anonymous": false,
      "inputs": [
        {
          "indexed": true,
          "internalType": "address",
          "name": "owner",
          "type": "address"
        },
        {
          "indexed": true,
          "internalType": "address",
          "name": "operator",
          "type": "address"
        },
        {
          "indexed": false,
          "internalType": "bool",
          "name": "approved",
          "type": "bool"
        }
      ],
      "name": "ApprovalForAll",
      "type": "event"
    },
    {
      "anonymous": false,
      "inputs": [
        {
          "indexed": true,
          "internalType": "address",
          "name": "previousOwner",
          "type": "address"
        },
        {
          "indexed": true,
          "internalType": "address",
          "name": "newOwner",
          "type": "address"
        }
      ],
      "name": "OwnershipTransferred",
      "type": "event"
    },
    {
      "anonymous": false,
      "inputs": [
        {
          "indexed": true,
          "internalType": "address",
          "name": "from",
          "type": "address"
        },
        {
          "indexed": true,
          "internalType": "address",
          "name": "to",
          "type": "address"
        },
        {
          "indexed": true,
          "internalType": "uint256",
          "name": "tokenId",
          "type": "uint256"
        }
      ],
      "name": "Transfer",
      "type": "event"
    },
    {
      "inputs": [
        {
          "internalType": "address",
          "name": "to",
          "type": "address"
        },
        {
          "internalType": "uint256",
          "name": "tokenId",
          "type": "uint256"
        }
      ],
      "name": "approve",
      "outputs": [],
      "stateMutability": "nonpayable",
      "type": "function"
    },
    {
      "inputs": [
        {
          "internalType": "address",
          "name": "owner",
          "type": "address"
        }
      ],
      "name": "balanceOf",
      "outputs": [
        {
          "internalType": "uint256",
          "name": "",
          "type": "uint256"
        }
      ],
      "stateMutability": "view",
      "type": "function"
    },
    {
      "inputs": [
        {
          "internalType": "uint256",
          "name": "tokenId",
          "type": "uint256"
        }
      ],
      "name": "getApproved",
      "outputs": [
        {
          "internalType": "address",
          "name": "",
          "type": "address"
        }
      ],
      "stateMutability": "view",
      "type": "function"
    },
    {
      "inputs": [
        {
          "internalType": "address",
          "name": "owner",
          "type": "address"
        },
        {
          "internalType": "address",
          "name": "operator",
          "type": "address"
        }
      ],
      "name": "isApprovedForAll",
      "outputs": [
        {
          "internalType": "bool",
          "name": "",
          "type": "bool"
        }
      ],
      "stateMutability": "view",
      "type": "function"
    },
    {
      "inputs": [],
      "name": "name",
      "outputs": [
        {
          "internalType": "string",
          "name": "",
          "type": "string"
        }
      ],
      "stateMutability": "view",
      "type": "function"
    },
    {
      "inputs": [],
      "name": "owner",
      "outputs": [
        {
          "internalType": "address",
          "name": "",
          "type": "address"
        }
      ],
      "stateMutability": "view",
      "type": "function"
    },
    {
      "inputs": [
        {
          "internalType": "uint256",
          "name": "tokenId",
          "type": "uint256"
        }
      ],
      "name": "ownerOf",
      "outputs": [
        {
          "internalType": "address",
          "name": "",
          "type": "address"
        }
      ],
      "stateMutability": "view",
      "type": "function"
    },
    {
      "inputs": [],
      "name": "renounceOwnership",
      "outputs": [],
      "stateMutability": "nonpayable",
      "type": "function"
    },
    {
      "inputs": [
        {
          "internalType": "address",
          "name": "from",
          "type": "address"
        },
        {
          "internalType": "address",
          "name": "to",
          "type": "address"
        },
        {
          "internalType": "uint256",
          "name": "tokenId",
          "type": "uint256"
        }
      ],
      "name": "safeTransferFrom",
      "outputs": [],
      "stateMutability": "nonpayable",
      "type": "function"
    },
    {
      "inputs": [
        {
          "internalType": "address",
          "name": "from",
          "type": "address"
        },
        {
          "internalType": "address",
          "name": "to",
          "type": "address"
        },
        {
          "internalType": "uint256",
          "name": "tokenId",
          "type": "uint256"
        },
        {
          "internalType": "bytes",
          "name": "_data",
          "type": "bytes"
        }
      ],
      "name": "safeTransferFrom",
      "outputs": [],
      "stateMutability": "nonpayable",
      "type": "function"
    },
    {
      "inputs": [
        {
          "internalType": "address",
          "name": "operator",
          "type": "address"
        },
        {
          "internalType": "bool",
          "name": "approved",
          "type": "bool"
        }
      ],
      "name": "setApprovalForAll",
      "outputs": [],
      "stateMutability": "nonpayable",
      "type": "function"
    },
    {
      "inputs": [
        {
          "internalType": "bytes4",
          "name": "interfaceId",
          "type": "bytes4"
        }
      ],
      "name": "supportsInterface",
      "outputs": [
        {
          "internalType": "bool",
          "name": "",
          "type": "bool"
        }
      ],
      "stateMutability": "view",
      "type": "function"
    },
    {
      "inputs": [],
      "name": "symbol",
      "outputs": [
        {
          "internalType": "string",
          "name": "",
          "type": "string"
        }
      ],
      "stateMutability": "view",
      "type": "function"
    },
    {
      "inputs": [
        {
          "internalType": "address",
          "name": "from",
          "type": "address"
        },
        {
          "internalType": "address",
          "name": "to",
          "type": "address"
        },
        {
          "internalType": "uint256",
          "name": "tokenId",
          "type": "uint256"
        }
      ],
      "name": "transferFrom",
      "outputs": [],
      "stateMutability": "nonpayable",
      "type": "function"
    },
    {
      "inputs": [
        {
          "internalType": "address",
          "name": "newOwner",
          "type": "address"
        }
      ],
      "name": "transferOwnership",
      "outputs": [],
      "stateMutability": "nonpayable",
      "type": "function"
    },
    {
      "inputs": [
        {
          "internalType": "address",
          "name": "to",
          "type": "address"
        },
        {
          "internalType": "string",
          "name": "uri",
          "type": "string"
        }
      ],
      "name": "safeMint",
      "outputs": [],
      "stateMutability": "nonpayable",
      "type": "function"
    },
    {
      "inputs": [
        {
          "internalType": "uint256",
          "name": "tokenId",
          "type": "uint256"
        }
      ],
      "name": "tokenURI",
      "outputs": [
        {
          "internalType": "string",
          "name": "",
          "type": "string"
        }
      ],
      "stateMutability": "view",
      "type": "function"
    },
    {
      "inputs": [
        {
          "internalType": "string",
          "name": "uri",
          "type": "string"
        }
      ],
      "name": "isContentOwned",
      "outputs": [
        {
          "internalType": "bool",
          "name": "",
          "type": "bool"
        }
      ],
      "stateMutability": "view",
      "type": "function"
    },
    {
      "inputs": [
        {
          "internalType": "address",
          "name": "recipient",
          "type": "address"
        },
        {
          "internalType": "string",
          "name": "metadataURI",
          "type": "string"
        }
      ],
      "name": "payToMint",
      "outputs": [
        {
          "internalType": "uint256",
          "name": "",
          "type": "uint256"
        }
      ],
      "stateMutability": "payable",
      "type": "function"
    }
  ],
  "bytecode": "0x60806040523480156200001157600080fd5b506040518060400160405280601081526020017f446f6373507265736372697074696f6e000000000000000000000000000000008152506040518060400160405280600381526020017f444f430000000000000000000000000000000000000000000000000000000000815250816000908051906020019062000096929190620001a6565b508060019080519060200190620000af929190620001a6565b505050620000d2620000c6620000d860201b60201c565b620000e060201b60201c565b620002bb565b600033905090565b6000600760009054906101000a900473ffffffffffffffffffffffffffffffffffffffff16905081600760006101000a81548173ffffffffffffffffffffffffffffffffffffffff021916908373ffffffffffffffffffffffffffffffffffffffff1602179055508173ffffffffffffffffffffffffffffffffffffffff168173ffffffffffffffffffffffffffffffffffffffff167f8be0079c531659141344cd1fd0a4f28419497f9722a3daafe3b4186f6b6457e060405160405180910390a35050565b828054620001b49062000285565b90600052602060002090601f016020900481019282620001d8576000855562000224565b82601f10620001f357805160ff191683800117855562000224565b8280016001018555821562000224579182015b828111156200022357825182559160200191906001019062000206565b5b50905062000233919062000237565b5090565b5b808211156200025257600081600090555060010162000238565b5090565b7f4e487b7100000000000000000000000000000000000000000000000000000000600052602260045260246000fd5b600060028204905060018216806200029e57607f821691505b60208210811415620002b557620002b462000256565b5b50919050565b61349980620002cb6000396000f3fe6080604052600436106101145760003560e01c8063715018a6116100a0578063b88d4fde11610064578063b88d4fde146103b6578063c87b56dd146103df578063d204c45e1461041c578063e985e9c514610445578063f2fde38b1461048257610114565b8063715018a6146102e35780638da5cb5b146102fa57806395d89b41146103255780639f1cabc614610350578063a22cb4651461038d57610114565b806323b872dd116100e757806323b872dd146101e757806342842e0e14610210578063615fd9e2146102395780636352211e1461026957806370a08231146102a657610114565b806301ffc9a71461011957806306fdde0314610156578063081812fc14610181578063095ea7b3146101be575b600080fd5b34801561012557600080fd5b50610140600480360381019061013b9190611fc5565b6104ab565b60405161014d919061200d565b60405180910390f35b34801561016257600080fd5b5061016b61058d565b60405161017891906120c1565b60405180910390f35b34801561018d57600080fd5b506101a860048036038101906101a39190612119565b61061f565b6040516101b59190612187565b60405180910390f35b3480156101ca57600080fd5b506101e560048036038101906101e091906121ce565b6106a4565b005b3480156101f357600080fd5b5061020e6004803603810190610209919061220e565b6107bc565b005b34801561021c57600080fd5b506102376004803603810190610232919061220e565b61081c565b005b610253600480360381019061024e9190612396565b61083c565b6040516102609190612401565b60405180910390f35b34801561027557600080fd5b50610290600480360381019061028b9190612119565b610968565b60405161029d9190612187565b60405180910390f35b3480156102b257600080fd5b506102cd60048036038101906102c8919061241c565b610a1a565b6040516102da9190612401565b60405180910390f35b3480156102ef57600080fd5b506102f8610ad2565b005b34801561030657600080fd5b5061030f610b5a565b60405161031c9190612187565b60405180910390f35b34801561033157600080fd5b5061033a610b84565b60405161034791906120c1565b60405180910390f35b34801561035c57600080fd5b5061037760048036038101906103729190612449565b610c16565b604051610384919061200d565b60405180910390f35b34801561039957600080fd5b506103b460048036038101906103af91906124be565b610c51565b005b3480156103c257600080fd5b506103dd60048036038101906103d8919061259f565b610c67565b005b3480156103eb57600080fd5b5061040660048036038101906104019190612119565b610cc9565b60405161041391906120c1565b60405180910390f35b34801561042857600080fd5b50610443600480360381019061043e9190612396565b610cdb565b005b34801561045157600080fd5b5061046c60048036038101906104679190612622565b610d88565b604051610479919061200d565b60405180910390f35b34801561048e57600080fd5b506104a960048036038101906104a4919061241c565b610e1c565b005b60007f80ac58cd000000000000000000000000000000000000000000000000000000007bffffffffffffffffffffffffffffffffffffffffffffffffffffffff1916827bffffffffffffffffffffffffffffffffffffffffffffffffffffffff1916148061057657507f5b5e139f000000000000000000000000000000000000000000000000000000007bffffffffffffffffffffffffffffffffffffffffffffffffffffffff1916827bffffffffffffffffffffffffffffffffffffffffffffffffffffffff1916145b80610586575061058582610f14565b5b9050919050565b60606000805461059c90612691565b80601f01602080910402602001604051908101604052809291908181526020018280546105c890612691565b80156106155780601f106105ea57610100808354040283529160200191610615565b820191906000526020600020905b8154815290600101906020018083116105f857829003601f168201915b5050505050905090565b600061062a82610f7e565b610669576040517f08c379a000000000000000000000000000000000000000000000000000000000815260040161066090612735565b60405180910390fd5b6004600083815260200190815260200160002060009054906101000a900473ffffffffffffffffffffffffffffffffffffffff169050919050565b60006106af82610968565b90508073ffffffffffffffffffffffffffffffffffffffff168373ffffffffffffffffffffffffffffffffffffffff161415610720576040517f08c379a0000000000000000000000000000000000000000000000000000000008152600401610717906127c7565b60405180910390fd5b8073ffffffffffffffffffffffffffffffffffffffff1661073f610fea565b73ffffffffffffffffffffffffffffffffffffffff16148061076e575061076d81610768610fea565b610d88565b5b6107ad576040517f08c379a00000000000000000000000000000000000000000000000000000000081526004016107a490612859565b60405180910390fd5b6107b78383610ff2565b505050565b6107cd6107c7610fea565b826110ab565b61080c576040517f08c379a0000000000000000000000000000000000000000000000000000000008152600401610803906128eb565b60405180910390fd5b610817838383611189565b505050565b61083783838360405180602001604052806000815250610c67565b505050565b600060016009836040516108509190612947565b908152602001604051809103902060009054906101000a900460ff1660ff1614156108b0576040517f08c379a00000000000000000000000000000000000000000000000000000000081526004016108a7906129aa565b60405180910390fd5b66b1a2bc2ec500003410156108fa576040517f08c379a00000000000000000000000000000000000000000000000000000000081526004016108f190612a16565b60405180910390fd5b600061090660086113f0565b905061091260086113fe565b60016009846040516109249190612947565b908152602001604051809103902060006101000a81548160ff021916908360ff1602179055506109548482611414565b61095e81846115ee565b8091505092915050565b6000806002600084815260200190815260200160002060009054906101000a900473ffffffffffffffffffffffffffffffffffffffff169050600073ffffffffffffffffffffffffffffffffffffffff168173ffffffffffffffffffffffffffffffffffffffff161415610a11576040517f08c379a0000000000000000000000000000000000000000000000000000000008152600401610a0890612aa8565b60405180910390fd5b80915050919050565b60008073ffffffffffffffffffffffffffffffffffffffff168273ffffffffffffffffffffffffffffffffffffffff161415610a8b576040517f08c379a0000000000000000000000000000000000000000000000000000000008152600401610a8290612b3a565b60405180910390fd5b600360008373ffffffffffffffffffffffffffffffffffffffff1673ffffffffffffffffffffffffffffffffffffffff168152602001908152602001600020549050919050565b610ada610fea565b73ffffffffffffffffffffffffffffffffffffffff16610af8610b5a565b73ffffffffffffffffffffffffffffffffffffffff1614610b4e576040517f08c379a0000000000000000000000000000000000000000000000000000000008152600401610b4590612ba6565b60405180910390fd5b610b586000611662565b565b6000600760009054906101000a900473ffffffffffffffffffffffffffffffffffffffff16905090565b606060018054610b9390612691565b80601f0160208091040260200160405190810160405280929190818152602001828054610bbf90612691565b8015610c0c5780601f10610be157610100808354040283529160200191610c0c565b820191906000526020600020905b815481529060010190602001808311610bef57829003601f168201915b5050505050905090565b60006001600983604051610c2a9190612947565b908152602001604051809103902060009054906101000a900460ff1660ff16149050919050565b610c63610c5c610fea565b8383611728565b5050565b610c78610c72610fea565b836110ab565b610cb7576040517f08c379a0000000000000000000000000000000000000000000000000000000008152600401610cae906128eb565b60405180910390fd5b610cc384848484611895565b50505050565b6060610cd4826118f1565b9050919050565b610ce3610fea565b73ffffffffffffffffffffffffffffffffffffffff16610d01610b5a565b73ffffffffffffffffffffffffffffffffffffffff1614610d57576040517f08c379a0000000000000000000000000000000000000000000000000000000008152600401610d4e90612ba6565b60405180910390fd5b6000610d6360086113f0565b9050610d6f60086113fe565b610d798382611a43565b610d8381836115ee565b505050565b6000600560008473ffffffffffffffffffffffffffffffffffffffff1673ffffffffffffffffffffffffffffffffffffffff16815260200190815260200160002060008373ffffffffffffffffffffffffffffffffffffffff1673ffffffffffffffffffffffffffffffffffffffff16815260200190815260200160002060009054906101000a900460ff16905092915050565b610e24610fea565b73ffffffffffffffffffffffffffffffffffffffff16610e42610b5a565b73ffffffffffffffffffffffffffffffffffffffff1614610e98576040517f08c379a0000000000000000000000000000000000000000000000000000000008152600401610e8f90612ba6565b60405180910390fd5b600073ffffffffffffffffffffffffffffffffffffffff168173ffffffffffffffffffffffffffffffffffffffff161415610f08576040517f08c379a0000000000000000000000000000000000000000000000000000000008152600401610eff90612c38565b60405180910390fd5b610f1181611662565b50565b60007f01ffc9a7000000000000000000000000000000000000000000000000000000007bffffffffffffffffffffffffffffffffffffffffffffffffffffffff1916827bffffffffffffffffffffffffffffffffffffffffffffffffffffffff1916149050919050565b60008073ffffffffffffffffffffffffffffffffffffffff166002600084815260200190815260200160002060009054906101000a900473ffffffffffffffffffffffffffffffffffffffff1673ffffffffffffffffffffffffffffffffffffffff1614159050919050565b600033905090565b816004600083815260200190815260200160002060006101000a81548173ffffffffffffffffffffffffffffffffffffffff021916908373ffffffffffffffffffffffffffffffffffffffff160217905550808273ffffffffffffffffffffffffffffffffffffffff1661106583610968565b73ffffffffffffffffffffffffffffffffffffffff167f8c5be1e5ebec7d5bd14f71427d1e84f3dd0314c0f7b2291e5b200ac8c7c3b92560405160405180910390a45050565b60006110b682610f7e565b6110f5576040517f08c379a00000000000000000000000000000000000000000000000000000000081526004016110ec90612cca565b60405180910390fd5b600061110083610968565b90508073ffffffffffffffffffffffffffffffffffffffff168473ffffffffffffffffffffffffffffffffffffffff16148061116f57508373ffffffffffffffffffffffffffffffffffffffff166111578461061f565b73ffffffffffffffffffffffffffffffffffffffff16145b80611180575061117f8185610d88565b5b91505092915050565b8273ffffffffffffffffffffffffffffffffffffffff166111a982610968565b73ffffffffffffffffffffffffffffffffffffffff16146111ff576040517f08c379a00000000000000000000000000000000000000000000000000000000081526004016111f690612d5c565b60405180910390fd5b600073ffffffffffffffffffffffffffffffffffffffff168273ffffffffffffffffffffffffffffffffffffffff16141561126f576040517f08c379a000000000000000000000000000000000000000000000000000000000815260040161126690612dee565b60405180910390fd5b61127a838383611a61565b611285600082610ff2565b6001600360008573ffffffffffffffffffffffffffffffffffffffff1673ffffffffffffffffffffffffffffffffffffffff16815260200190815260200160002060008282546112d59190612e3d565b925050819055506001600360008473ffffffffffffffffffffffffffffffffffffffff1673ffffffffffffffffffffffffffffffffffffffff168152602001908152602001600020600082825461132c9190612e71565b92505081905550816002600083815260200190815260200160002060006101000a81548173ffffffffffffffffffffffffffffffffffffffff021916908373ffffffffffffffffffffffffffffffffffffffff160217905550808273ffffffffffffffffffffffffffffffffffffffff168473ffffffffffffffffffffffffffffffffffffffff167fddf252ad1be2c89b69c2b068fc378daa952ba7f163c4a11628f55a4df523b3ef60405160405180910390a46113eb838383611a66565b505050565b600081600001549050919050565b6001816000016000828254019250508190555050565b600073ffffffffffffffffffffffffffffffffffffffff168273ffffffffffffffffffffffffffffffffffffffff161415611484576040517f08c379a000000000000000000000000000000000000000000000000000000000815260040161147b90612f13565b60405180910390fd5b61148d81610f7e565b156114cd576040517f08c379a00000000000000000000000000000000000000000000000000000000081526004016114c490612f7f565b60405180910390fd5b6114d960008383611a61565b6001600360008473ffffffffffffffffffffffffffffffffffffffff1673ffffffffffffffffffffffffffffffffffffffff16815260200190815260200160002060008282546115299190612e71565b92505081905550816002600083815260200190815260200160002060006101000a81548173ffffffffffffffffffffffffffffffffffffffff021916908373ffffffffffffffffffffffffffffffffffffffff160217905550808273ffffffffffffffffffffffffffffffffffffffff16600073ffffffffffffffffffffffffffffffffffffffff167fddf252ad1be2c89b69c2b068fc378daa952ba7f163c4a11628f55a4df523b3ef60405160405180910390a46115ea60008383611a66565b5050565b6115f782610f7e565b611636576040517f08c379a000000000000000000000000000000000000000000000000000000000815260040161162d90613011565b60405180910390fd5b8060066000848152602001908152602001600020908051906020019061165d929190611eb6565b505050565b6000600760009054906101000a900473ffffffffffffffffffffffffffffffffffffffff16905081600760006101000a81548173ffffffffffffffffffffffffffffffffffffffff021916908373ffffffffffffffffffffffffffffffffffffffff1602179055508173ffffffffffffffffffffffffffffffffffffffff168173ffffffffffffffffffffffffffffffffffffffff167f8be0079c531659141344cd1fd0a4f28419497f9722a3daafe3b4186f6b6457e060405160405180910390a35050565b8173ffffffffffffffffffffffffffffffffffffffff168373ffffffffffffffffffffffffffffffffffffffff161415611797576040517f08c379a000000000000000000000000000000000000000000000000000000000815260040161178e9061307d565b60405180910390fd5b80600560008573ffffffffffffffffffffffffffffffffffffffff1673ffffffffffffffffffffffffffffffffffffffff16815260200190815260200160002060008473ffffffffffffffffffffffffffffffffffffffff1673ffffffffffffffffffffffffffffffffffffffff16815260200190815260200160002060006101000a81548160ff0219169083151502179055508173ffffffffffffffffffffffffffffffffffffffff168373ffffffffffffffffffffffffffffffffffffffff167f17307eab39ab6107e8899845ad3d59bd9653f200f220920489ca2b5937696c3183604051611888919061200d565b60405180910390a3505050565b6118a0848484611189565b6118ac84848484611a6b565b6118eb576040517f08c379a00000000000000000000000000000000000000000000000000000000081526004016118e29061310f565b60405180910390fd5b50505050565b60606118fc82610f7e565b61193b576040517f08c379a0000000000000000000000000000000000000000000000000000000008152600401611932906131a1565b60405180910390fd5b600060066000848152602001908152602001600020805461195b90612691565b80601f016020809104026020016040519081016040528092919081815260200182805461198790612691565b80156119d45780601f106119a9576101008083540402835291602001916119d4565b820191906000526020600020905b8154815290600101906020018083116119b757829003601f168201915b5050505050905060006119e5611bf3565b90506000815114156119fb578192505050611a3e565b600082511115611a30578082604051602001611a189291906131c1565b60405160208183030381529060405292505050611a3e565b611a3984611c30565b925050505b919050565b611a5d828260405180602001604052806000815250611cd7565b5050565b505050565b505050565b6000611a8c8473ffffffffffffffffffffffffffffffffffffffff16611d32565b15611be6578373ffffffffffffffffffffffffffffffffffffffff1663150b7a02611ab5610fea565b8786866040518563ffffffff1660e01b8152600401611ad7949392919061323a565b6020604051808303816000875af1925050508015611b1357506040513d601f19601f82011682018060405250810190611b10919061329b565b60015b611b96573d8060008114611b43576040519150601f19603f3d011682016040523d82523d6000602084013e611b48565b606091505b50600081511415611b8e576040517f08c379a0000000000000000000000000000000000000000000000000000000008152600401611b859061310f565b60405180910390fd5b805181602001fd5b63150b7a0260e01b7bffffffffffffffffffffffffffffffffffffffffffffffffffffffff1916817bffffffffffffffffffffffffffffffffffffffffffffffffffffffff191614915050611beb565b600190505b949350505050565b60606040518060400160405280600781526020017f697066733a2f2f00000000000000000000000000000000000000000000000000815250905090565b6060611c3b82610f7e565b611c7a576040517f08c379a0000000000000000000000000000000000000000000000000000000008152600401611c719061333a565b60405180910390fd5b6000611c84611bf3565b90506000815111611ca45760405180602001604052806000815250611ccf565b80611cae84611d55565b604051602001611cbf9291906131c1565b6040516020818303038152906040525b915050919050565b611ce18383611414565b611cee6000848484611a6b565b611d2d576040517f08c379a0000000000000000000000000000000000000000000000000000000008152600401611d249061310f565b60405180910390fd5b505050565b6000808273ffffffffffffffffffffffffffffffffffffffff163b119050919050565b60606000821415611d9d576040518060400160405280600181526020017f30000000000000000000000000000000000000000000000000000000000000008152509050611eb1565b600082905060005b60008214611dcf578080611db89061335a565b915050600a82611dc891906133d2565b9150611da5565b60008167ffffffffffffffff811115611deb57611dea61226b565b5b6040519080825280601f01601f191660200182016040528015611e1d5781602001600182028036833780820191505090505b5090505b60008514611eaa57600182611e369190612e3d565b9150600a85611e459190613403565b6030611e519190612e71565b60f81b818381518110611e6757611e66613434565b5b60200101907effffffffffffffffffffffffffffffffffffffffffffffffffffffffffffff1916908160001a905350600a85611ea391906133d2565b9450611e21565b8093505050505b919050565b828054611ec290612691565b90600052602060002090601f016020900481019282611ee45760008555611f2b565b82601f10611efd57805160ff1916838001178555611f2b565b82800160010185558215611f2b579182015b82811115611f2a578251825591602001919060010190611f0f565b5b509050611f389190611f3c565b5090565b5b80821115611f55576000816000905550600101611f3d565b5090565b6000604051905090565b600080fd5b600080fd5b60007fffffffff0000000000000000000000000000000000000000000000000000000082169050919050565b611fa281611f6d565b8114611fad57600080fd5b50565b600081359050611fbf81611f99565b92915050565b600060208284031215611fdb57611fda611f63565b5b6000611fe984828501611fb0565b91505092915050565b60008115159050919050565b61200781611ff2565b82525050565b60006020820190506120226000830184611ffe565b92915050565b600081519050919050565b600082825260208201905092915050565b60005b83811015612062578082015181840152602081019050612047565b83811115612071576000848401525b50505050565b6000601f19601f8301169050919050565b600061209382612028565b61209d8185612033565b93506120ad818560208601612044565b6120b681612077565b840191505092915050565b600060208201905081810360008301526120db8184612088565b905092915050565b6000819050919050565b6120f6816120e3565b811461210157600080fd5b50565b600081359050612113816120ed565b92915050565b60006020828403121561212f5761212e611f63565b5b600061213d84828501612104565b91505092915050565b600073ffffffffffffffffffffffffffffffffffffffff82169050919050565b600061217182612146565b9050919050565b61218181612166565b82525050565b600060208201905061219c6000830184612178565b92915050565b6121ab81612166565b81146121b657600080fd5b50565b6000813590506121c8816121a2565b92915050565b600080604083850312156121e5576121e4611f63565b5b60006121f3858286016121b9565b925050602061220485828601612104565b9150509250929050565b60008060006060848603121561222757612226611f63565b5b6000612235868287016121b9565b9350506020612246868287016121b9565b925050604061225786828701612104565b9150509250925092565b600080fd5b600080fd5b7f4e487b7100000000000000000000000000000000000000000000000000000000600052604160045260246000fd5b6122a382612077565b810181811067ffffffffffffffff821117156122c2576122c161226b565b5b80604052505050565b60006122d5611f59565b90506122e1828261229a565b919050565b600067ffffffffffffffff8211156123015761230061226b565b5b61230a82612077565b9050602081019050919050565b82818337600083830152505050565b6000612339612334846122e6565b6122cb565b90508281526020810184848401111561235557612354612266565b5b612360848285612317565b509392505050565b600082601f83011261237d5761237c612261565b5b813561238d848260208601612326565b91505092915050565b600080604083850312156123ad576123ac611f63565b5b60006123bb858286016121b9565b925050602083013567ffffffffffffffff8111156123dc576123db611f68565b5b6123e885828601612368565b9150509250929050565b6123fb816120e3565b82525050565b600060208201905061241660008301846123f2565b92915050565b60006020828403121561243257612431611f63565b5b6000612440848285016121b9565b91505092915050565b60006020828403121561245f5761245e611f63565b5b600082013567ffffffffffffffff81111561247d5761247c611f68565b5b61248984828501612368565b91505092915050565b61249b81611ff2565b81146124a657600080fd5b50565b6000813590506124b881612492565b92915050565b600080604083850312156124d5576124d4611f63565b5b60006124e3858286016121b9565b92505060206124f4858286016124a9565b9150509250929050565b600067ffffffffffffffff8211156125195761251861226b565b5b61252282612077565b9050602081019050919050565b600061254261253d846124fe565b6122cb565b90508281526020810184848401111561255e5761255d612266565b5b612569848285612317565b509392505050565b600082601f83011261258657612585612261565b5b813561259684826020860161252f565b91505092915050565b600080600080608085870312156125b9576125b8611f63565b5b60006125c7878288016121b9565b94505060206125d8878288016121b9565b93505060406125e987828801612104565b925050606085013567ffffffffffffffff81111561260a57612609611f68565b5b61261687828801612571565b91505092959194509250565b6000806040838503121561263957612638611f63565b5b6000612647858286016121b9565b9250506020612658858286016121b9565b9150509250929050565b7f4e487b7100000000000000000000000000000000000000000000000000000000600052602260045260246000fd5b600060028204905060018216806126a957607f821691505b602082108114156126bd576126bc612662565b5b50919050565b7f4552433732313a20617070726f76656420717565727920666f72206e6f6e657860008201527f697374656e7420746f6b656e0000000000000000000000000000000000000000602082015250565b600061271f602c83612033565b915061272a826126c3565b604082019050919050565b6000602082019050818103600083015261274e81612712565b9050919050565b7f4552433732313a20617070726f76616c20746f2063757272656e74206f776e6560008201527f7200000000000000000000000000000000000000000000000000000000000000602082015250565b60006127b1602183612033565b91506127bc82612755565b604082019050919050565b600060208201905081810360008301526127e0816127a4565b9050919050565b7f4552433732313a20617070726f76652063616c6c6572206973206e6f74206f7760008201527f6e6572206e6f7220617070726f76656420666f7220616c6c0000000000000000602082015250565b6000612843603883612033565b915061284e826127e7565b604082019050919050565b6000602082019050818103600083015261287281612836565b9050919050565b7f4552433732313a207472616e736665722063616c6c6572206973206e6f74206f60008201527f776e6572206e6f7220617070726f766564000000000000000000000000000000602082015250565b60006128d5603183612033565b91506128e082612879565b604082019050919050565b60006020820190508181036000830152612904816128c8565b9050919050565b600081905092915050565b600061292182612028565b61292b818561290b565b935061293b818560208601612044565b80840191505092915050565b60006129538284612916565b915081905092915050565b7f507265736372697074696f6e20616c7265616479206d696e7465642100000000600082015250565b6000612994601c83612033565b915061299f8261295e565b602082019050919050565b600060208201905081810360008301526129c381612987565b9050919050565b7f55736572206e6565647320746f20706179000000000000000000000000000000600082015250565b6000612a00601183612033565b9150612a0b826129ca565b602082019050919050565b60006020820190508181036000830152612a2f816129f3565b9050919050565b7f4552433732313a206f776e657220717565727920666f72206e6f6e657869737460008201527f656e7420746f6b656e0000000000000000000000000000000000000000000000602082015250565b6000612a92602983612033565b9150612a9d82612a36565b604082019050919050565b60006020820190508181036000830152612ac181612a85565b9050919050565b7f4552433732313a2062616c616e636520717565727920666f7220746865207a6560008201527f726f206164647265737300000000000000000000000000000000000000000000602082015250565b6000612b24602a83612033565b9150612b2f82612ac8565b604082019050919050565b60006020820190508181036000830152612b5381612b17565b9050919050565b7f4f776e61626c653a2063616c6c6572206973206e6f7420746865206f776e6572600082015250565b6000612b90602083612033565b9150612b9b82612b5a565b602082019050919050565b60006020820190508181036000830152612bbf81612b83565b9050919050565b7f4f776e61626c653a206e6577206f776e657220697320746865207a65726f206160008201527f6464726573730000000000000000000000000000000000000000000000000000602082015250565b6000612c22602683612033565b9150612c2d82612bc6565b604082019050919050565b60006020820190508181036000830152612c5181612c15565b9050919050565b7f4552433732313a206f70657261746f7220717565727920666f72206e6f6e657860008201527f697374656e7420746f6b656e0000000000000000000000000000000000000000602082015250565b6000612cb4602c83612033565b9150612cbf82612c58565b604082019050919050565b60006020820190508181036000830152612ce381612ca7565b9050919050565b7f4552433732313a207472616e736665722066726f6d20696e636f72726563742060008201527f6f776e6572000000000000000000000000000000000000000000000000000000602082015250565b6000612d46602583612033565b9150612d5182612cea565b604082019050919050565b60006020820190508181036000830152612d7581612d39565b9050919050565b7f4552433732313a207472616e7366657220746f20746865207a65726f2061646460008201527f7265737300000000000000000000000000000000000000000000000000000000602082015250565b6000612dd8602483612033565b9150612de382612d7c565b604082019050919050565b60006020820190508181036000830152612e0781612dcb565b9050919050565b7f4e487b7100000000000000000000000000000000000000000000000000000000600052601160045260246000fd5b6000612e48826120e3565b9150612e53836120e3565b925082821015612e6657612e65612e0e565b5b828203905092915050565b6000612e7c826120e3565b9150612e87836120e3565b9250827fffffffffffffffffffffffffffffffffffffffffffffffffffffffffffffffff03821115612ebc57612ebb612e0e565b5b828201905092915050565b7f4552433732313a206d696e7420746f20746865207a65726f2061646472657373600082015250565b6000612efd602083612033565b9150612f0882612ec7565b602082019050919050565b60006020820190508181036000830152612f2c81612ef0565b9050919050565b7f4552433732313a20746f6b656e20616c7265616479206d696e74656400000000600082015250565b6000612f69601c83612033565b9150612f7482612f33565b602082019050919050565b60006020820190508181036000830152612f9881612f5c565b9050919050565b7f45524337323155524953746f726167653a2055524920736574206f66206e6f6e60008201527f6578697374656e7420746f6b656e000000000000000000000000000000000000602082015250565b6000612ffb602e83612033565b915061300682612f9f565b604082019050919050565b6000602082019050818103600083015261302a81612fee565b9050919050565b7f4552433732313a20617070726f766520746f2063616c6c657200000000000000600082015250565b6000613067601983612033565b915061307282613031565b602082019050919050565b600060208201905081810360008301526130968161305a565b9050919050565b7f4552433732313a207472616e7366657220746f206e6f6e20455243373231526560008201527f63656976657220696d706c656d656e7465720000000000000000000000000000602082015250565b60006130f9603283612033565b91506131048261309d565b604082019050919050565b60006020820190508181036000830152613128816130ec565b9050919050565b7f45524337323155524953746f726167653a2055524920717565727920666f722060008201527f6e6f6e6578697374656e7420746f6b656e000000000000000000000000000000602082015250565b600061318b603183612033565b91506131968261312f565b604082019050919050565b600060208201905081810360008301526131ba8161317e565b9050919050565b60006131cd8285612916565b91506131d98284612916565b91508190509392505050565b600081519050919050565b600082825260208201905092915050565b600061320c826131e5565b61321681856131f0565b9350613226818560208601612044565b61322f81612077565b840191505092915050565b600060808201905061324f6000830187612178565b61325c6020830186612178565b61326960408301856123f2565b818103606083015261327b8184613201565b905095945050505050565b60008151905061329581611f99565b92915050565b6000602082840312156132b1576132b0611f63565b5b60006132bf84828501613286565b91505092915050565b7f4552433732314d657461646174613a2055524920717565727920666f72206e6f60008201527f6e6578697374656e7420746f6b656e0000000000000000000000000000000000602082015250565b6000613324602f83612033565b915061332f826132c8565b604082019050919050565b6000602082019050818103600083015261335381613317565b9050919050565b6000613365826120e3565b91507fffffffffffffffffffffffffffffffffffffffffffffffffffffffffffffffff82141561339857613397612e0e565b5b600182019050919050565b7f4e487b7100000000000000000000000000000000000000000000000000000000600052601260045260246000fd5b60006133dd826120e3565b91506133e8836120e3565b9250826133f8576133f76133a3565b5b828204905092915050565b600061340e826120e3565b9150613419836120e3565b925082613429576134286133a3565b5b828206905092915050565b7f4e487b7100000000000000000000000000000000000000000000000000000000600052603260045260246000fdfea2646970667358221220dd42eb0cd03d499a4ade14bf50a7c3a5b2ff7886dc89d303be87b4e49b5519d064736f6c634300080c0033",
  "immutableReferences": {},
  "source": "// SPDX-License-Identifier: MIT\r\npragma solidity ^0.8.4;\r\n\r\nimport \"@openzeppelin/contracts/token/ERC721/ERC721.sol\";\r\nimport \"@openzeppelin/contracts/token/ERC721/extensions/ERC721URIStorage.sol\";\r\nimport \"@openzeppelin/contracts/access/Ownable.sol\";\r\nimport \"@openzeppelin/contracts/utils/Counters.sol\";\r\n\r\ncontract DocsPrescription is ERC721, ERC721URIStorage, Ownable {\r\n    using Counters for Counters.Counter;\r\n\r\n    Counters.Counter private _tokenIdCounter;\r\n\r\n    mapping(string => uint8) existingURIs;\r\n\r\n    constructor() ERC721(\"DocsPrescription\", \"DOC\") {}\r\n\r\n    function _baseURI() internal pure override returns (string memory) {\r\n        return \"ipfs://\";\r\n    }\r\n\r\n    function safeMint(address to, string memory uri) public onlyOwner {\r\n        uint256 tokenId = _tokenIdCounter.current();\r\n        _tokenIdCounter.increment();\r\n        _safeMint(to, tokenId);\r\n        _setTokenURI(tokenId, uri);\r\n    }\r\n\r\n    // The following functions are overrides required by Solidity.\r\n\r\n    function _burn(uint256 tokenId)\r\n        internal\r\n        override(ERC721, ERC721URIStorage)\r\n    {\r\n        super._burn(tokenId);\r\n    }\r\n\r\n    function tokenURI(uint256 tokenId)\r\n        public\r\n        view\r\n        override(ERC721, ERC721URIStorage)\r\n        returns (string memory)\r\n    {\r\n        return super.tokenURI(tokenId);\r\n    }\r\n\r\n    function isContentOwned(string memory uri) public view returns (bool) {\r\n        return existingURIs[uri] == 1;\r\n    }\r\n\r\n    function payToMint(address recipient, string memory metadataURI)\r\n        public\r\n        payable\r\n        returns (uint256)\r\n    {\r\n        require(existingURIs[metadataURI] != 1, \"Prescription already minted!\");\r\n        require(msg.value >= 0.05 ether, \"User needs to pay\");\r\n\r\n        uint256 newItemId = _tokenIdCounter.current();\r\n        _tokenIdCounter.increment();\r\n        existingURIs[metadataURI] = 1;\r\n\r\n        _mint(recipient, newItemId);\r\n        _setTokenURI(newItemId, metadataURI);\r\n\r\n        return newItemId;\r\n    }\r\n}\r\n",
  "sourcePath": "C:\\Users\\rushi\\Documents\\GitHub\\Docs-NFT\\contracts\\Prescriptions.sol",
  "compiler": {
    "name": "solc",
    "version": "0.8.12+commit.f00d7308.Emscripten.clang"
  },
  "schemaVersion": "3.4.6",
  "updatedAt": "2022-03-15T21:46:39.202Z",
  "devdoc": {
    "kind": "dev",
    "methods": {
      "approve(address,uint256)": {
        "details": "See {IERC721-approve}."
      },
      "balanceOf(address)": {
        "details": "See {IERC721-balanceOf}."
      },
      "getApproved(uint256)": {
        "details": "See {IERC721-getApproved}."
      },
      "isApprovedForAll(address,address)": {
        "details": "See {IERC721-isApprovedForAll}."
      },
      "name()": {
        "details": "See {IERC721Metadata-name}."
      },
      "owner()": {
        "details": "Returns the address of the current owner."
      },
      "ownerOf(uint256)": {
        "details": "See {IERC721-ownerOf}."
      },
      "renounceOwnership()": {
        "details": "Leaves the contract without owner. It will not be possible to call `onlyOwner` functions anymore. Can only be called by the current owner. NOTE: Renouncing ownership will leave the contract without an owner, thereby removing any functionality that is only available to the owner."
      },
      "safeTransferFrom(address,address,uint256)": {
        "details": "See {IERC721-safeTransferFrom}."
      },
      "safeTransferFrom(address,address,uint256,bytes)": {
        "details": "See {IERC721-safeTransferFrom}."
      },
      "setApprovalForAll(address,bool)": {
        "details": "See {IERC721-setApprovalForAll}."
      },
      "supportsInterface(bytes4)": {
        "details": "See {IERC165-supportsInterface}."
      },
      "symbol()": {
        "details": "See {IERC721Metadata-symbol}."
      },
      "transferFrom(address,address,uint256)": {
        "details": "See {IERC721-transferFrom}."
      },
      "transferOwnership(address)": {
        "details": "Transfers ownership of the contract to a new account (`newOwner`). Can only be called by the current owner."
      }
    },
    "version": 1
  },
  "userdoc": {
    "kind": "user",
    "methods": {},
    "version": 1
  }
}